{
  "_format": "hh-sol-artifact-1",
  "contractName": "Flipper",
  "sourceName": "contracts/Flipper.sol",
  "abi": [
    {
      "inputs": [],
      "stateMutability": "nonpayable",
      "type": "constructor"
    },
    {
      "anonymous": false,
      "inputs": [
        {
          "indexed": false,
          "internalType": "bool",
          "name": "value",
          "type": "bool"
        }
      ],
      "name": "Flipped",
      "type": "event"
    },
    {
      "inputs": [],
      "name": "data",
      "outputs": [
        {
          "internalType": "bool",
          "name": "",
          "type": "bool"
        }
      ],
      "stateMutability": "view",
      "type": "function"
    },
    {
      "inputs": [],
      "name": "flip",
      "outputs": [],
      "stateMutability": "nonpayable",
      "type": "function"
    }
  ],
  "bytecode": "0x608060405234801561001057600080fd5b5060008060006101000a81548160ff02191690831515021790555061014d8061003a6000396000f3fe608060405234801561001057600080fd5b50600436106100365760003560e01c806373d4a13a1461003b578063cde4efa914610059575b600080fd5b610043610063565b60405161005091906100fc565b60405180910390f35b610061610074565b005b60008054906101000a900460ff1681565b60008054906101000a900460ff16156000806101000a81548160ff0219169083151502179055507f1865bbf6b35a0abc70661ed5e4050e07bb8d173ef7c0c116598f4d4adb7a668a60008054906101000a900460ff166040516100d791906100fc565b60405180910390a1565b60008115159050919050565b6100f6816100e1565b82525050565b600060208201905061011160008301846100ed565b9291505056fea2646970667358221220f7341f564f27953a7369c8956bb61da87e37bd5caec3d9580bc5fec20047437164736f6c63430008130033",
  "linkReferences": {},
  "deployedLinkReferences": {}
}